{
  "_format": "hh-sol-artifact-1",
  "contractName": "Reference",
  "sourceName": "contracts/Reference.sol",
  "abi": [
    {
      "inputs": [
        {
          "internalType": "uint256",
          "name": "skip",
          "type": "uint256"
        }
      ],
      "stateMutability": "nonpayable",
      "type": "constructor"
    },
    {
      "inputs": [
        {
          "internalType": "uint256[]",
          "name": "array",
          "type": "uint256[]"
        }
      ],
      "name": "referenceSumAllExceptSkip",
      "outputs": [
        {
          "internalType": "uint256",
          "name": "sum",
          "type": "uint256"
        }
      ],
      "stateMutability": "view",
      "type": "function"
    }
  ],
  "bytecode": "0x608060405234801561001057600080fd5b5060405161028b38038061028b83398101604081905261002f91610037565b600055610050565b60006020828403121561004957600080fd5b5051919050565b61022c8061005f6000396000f3fe608060405234801561001057600080fd5b506004361061002b5760003560e01c8063fe28cfd714610030575b600080fd5b61004361003e3660046100da565b610055565b60405190815260200160405180910390f35b6000805b82518110156100be5760005483828151811061007757610077610198565b6020026020010151146100ac5782818151811061009657610096610198565b6020026020010151826100a991906101c4565b91505b806100b6816101dd565b915050610059565b50919050565b634e487b7160e01b600052604160045260246000fd5b600060208083850312156100ed57600080fd5b823567ffffffffffffffff8082111561010557600080fd5b818501915085601f83011261011957600080fd5b81358181111561012b5761012b6100c4565b8060051b604051601f19603f83011681018181108582111715610150576101506100c4565b60405291825284820192508381018501918883111561016e57600080fd5b938501935b8285101561018c57843584529385019392850192610173565b98975050505050505050565b634e487b7160e01b600052603260045260246000fd5b634e487b7160e01b600052601160045260246000fd5b808201808211156101d7576101d76101ae565b92915050565b6000600182016101ef576101ef6101ae565b506001019056fea26469706673582212207c0de9ff4e1747662f21ac607a6dd02483336304fb52daaeb37eaa0f075606c264736f6c63430008130033",
  "linkReferences": {},
  "deployedLinkReferences": {}
}