{"contracts/test/GasMeter.sol":{"GasMeter":{"abi":[{"inputs":[{"internalType":"uint256","name":"_skip","type":"uint256"}],"stateMutability":"nonpayable","type":"constructor"},{"inputs":[{"internalType":"uint256[]","name":"_inputArray","type":"uint256[]"}],"name":"measureGas","outputs":[{"internalType":"uint256","name":"gas","type":"uint256"}],"stateMutability":"view","type":"function"},{"inputs":[{"internalType":"uint256[]","name":"_inputArray","type":"uint256[]"}],"name":"measureReferenceGas","outputs":[{"internalType":"uint256","name":"gas","type":"uint256"}],"stateMutability":"view","type":"function"},{"inputs":[{"internalType":"uint256[]","name":"array","type":"uint256[]"}],"name":"referenceSumAllExceptSkip","outputs":[{"internalType":"uint256","name":"sum","type":"uint256"}],"stateMutability":"view","type":"function"},{"inputs":[{"internalType":"uint256[]","name":"array","type":"uint256[]"}],"name":"sumAllExceptSkip","outputs":[{"internalType":"uint256","name":"sum","type":"uint256"}],"stateMutability":"view","type":"function"}],"evm":{"bytecode":{"linkReferences":{},"object":"60a060405234801561001057600080fd5b5060405161044e38038061044e83398101604081905261002f9161003c565b6080819052600055610055565b60006020828403121561004e57600080fd5b5051919050565b6080516103df61006f600039600060db01526103df6000f3fe608060405234801561001057600080fd5b506004361061004c5760003560e01c806314e8663e146100515780632b55c4b1146100765780639b403b6f14610089578063fe28cfd71461009c575b600080fd5b61006461005f3660046101f5565b6100af565b60405190815260200160405180910390f35b6100646100843660046101f5565b61011e565b6100646100973660046101f5565b610176565b6100646100aa366004610280565b610186565b600081815b818110156101165760008585838181106100d0576100d061033e565b9050602002013590507f0000000000000000000000000000000000000000000000000000000000000000811461010d5761010a818561036a565b93505b506001016100b4565b505092915050565b6000805a905061016084848080602002602001604051908101604052809392919081815260200183836020028082843760009201919091525061018692505050565b505a61016c908261037d565b9150505b92915050565b6000805a905061016084846100af565b6000805b82518110156101ef576000548382815181106101a8576101a861033e565b6020026020010151146101dd578281815181106101c7576101c761033e565b6020026020010151826101da919061036a565b91505b806101e781610390565b91505061018a565b50919050565b6000806020838503121561020857600080fd5b823567ffffffffffffffff8082111561022057600080fd5b818501915085601f83011261023457600080fd5b81358181111561024357600080fd5b8660208260051b850101111561025857600080fd5b60209290920196919550909350505050565b634e487b7160e01b600052604160045260246000fd5b6000602080838503121561029357600080fd5b823567ffffffffffffffff808211156102ab57600080fd5b818501915085601f8301126102bf57600080fd5b8135818111156102d1576102d161026a565b8060051b604051601f19603f830116810181811085821117156102f6576102f661026a565b60405291825284820192508381018501918883111561031457600080fd5b938501935b8285101561033257843584529385019392850192610319565b98975050505050505050565b634e487b7160e01b600052603260045260246000fd5b634e487b7160e01b600052601160045260246000fd5b8082018082111561017057610170610354565b8181038181111561017057610170610354565b6000600182016103a2576103a2610354565b506001019056fea2646970667358221220f0041f83f4c2604d3b40eb7d010ac9fd131fd6f77a09528044056b3b017d8bfc64736f6c63430008130033","opcodes":"PUSH1 0xA0 PUSH1 0x40 MSTORE CALLVALUE DUP1 ISZERO PUSH2 0x10 JUMPI PUSH1 0x0 DUP1 REVERT JUMPDEST POP PUSH1 0x40 MLOAD PUSH2 0x44E CODESIZE SUB DUP1 PUSH2 0x44E DUP4 CODECOPY DUP2 ADD PUSH1 0x40 DUP2 SWAP1 MSTORE PUSH2 0x2F SWAP2 PUSH2 0x3C JUMP JUMPDEST PUSH1 0x80 DUP2 SWAP1 MSTORE PUSH1 0x0 SSTORE PUSH2 0x55 JUMP JUMPDEST PUSH1 0x0 PUSH1 0x20 DUP3 DUP5 SUB SLT ISZERO PUSH2 0x4E JUMPI PUSH1 0x0 DUP1 REVERT JUMPDEST POP MLOAD SWAP2 SWAP1 POP JUMP JUMPDEST PUSH1 0x80 MLOAD PUSH2 0x3DF PUSH2 0x6F PUSH1 0x0 CODECOPY PUSH1 0x0 PUSH1 0xDB ADD MSTORE PUSH2 0x3DF PUSH1 0x0 RETURN INVALID PUSH1 0x80 PUSH1 0x40 MSTORE CALLVALUE DUP1 ISZERO PUSH2 0x10 JUMPI PUSH1 0x0 DUP1 REVERT JUMPDEST POP PUSH1 0x4 CALLDATASIZE LT PUSH2 0x4C JUMPI PUSH1 0x0 CALLDATALOAD PUSH1 0xE0 SHR DUP1 PUSH4 0x14E8663E EQ PUSH2 0x51 JUMPI DUP1 PUSH4 0x2B55C4B1 EQ PUSH2 0x76 JUMPI DUP1 PUSH4 0x9B403B6F EQ PUSH2 0x89 JUMPI DUP1 PUSH4 0xFE28CFD7 EQ PUSH2 0x9C JUMPI JUMPDEST PUSH1 0x0 DUP1 REVERT JUMPDEST PUSH2 0x64 PUSH2 0x5F CALLDATASIZE PUSH1 0x4 PUSH2 0x1F5 JUMP JUMPDEST PUSH2 0xAF JUMP JUMPDEST PUSH1 0x40 MLOAD SWAP1 DUP2 MSTORE PUSH1 0x20 ADD PUSH1 0x40 MLOAD DUP1 SWAP2 SUB SWAP1 RETURN JUMPDEST PUSH2 0x64 PUSH2 0x84 CALLDATASIZE PUSH1 0x4 PUSH2 0x1F5 JUMP JUMPDEST PUSH2 0x11E JUMP JUMPDEST PUSH2 0x64 PUSH2 0x97 CALLDATASIZE PUSH1 0x4 PUSH2 0x1F5 JUMP JUMPDEST PUSH2 0x176 JUMP JUMPDEST PUSH2 0x64 PUSH2 0xAA CALLDATASIZE PUSH1 0x4 PUSH2 0x280 JUMP JUMPDEST PUSH2 0x186 JUMP JUMPDEST PUSH1 0x0 DUP2 DUP2 JUMPDEST DUP2 DUP2 LT ISZERO PUSH2 0x116 JUMPI PUSH1 0x0 DUP6 DUP6 DUP4 DUP2 DUP2 LT PUSH2 0xD0 JUMPI PUSH2 0xD0 PUSH2 0x33E JUMP JUMPDEST SWAP1 POP PUSH1 0x20 MUL ADD CALLDATALOAD SWAP1 POP PUSH32 0x0 DUP2 EQ PUSH2 0x10D JUMPI PUSH2 0x10A DUP2 DUP6 PUSH2 0x36A JUMP JUMPDEST SWAP4 POP JUMPDEST POP PUSH1 0x1 ADD PUSH2 0xB4 JUMP JUMPDEST POP POP SWAP3 SWAP2 POP POP JUMP JUMPDEST PUSH1 0x0 DUP1 GAS SWAP1 POP PUSH2 0x160 DUP5 DUP5 DUP1 DUP1 PUSH1 0x20 MUL PUSH1 0x20 ADD PUSH1 0x40 MLOAD SWAP1 DUP2 ADD PUSH1 0x40 MSTORE DUP1 SWAP4 SWAP3 SWAP2 SWAP1 DUP2 DUP2 MSTORE PUSH1 0x20 ADD DUP4 DUP4 PUSH1 0x20 MUL DUP1 DUP3 DUP5 CALLDATACOPY PUSH1 0x0 SWAP3 ADD SWAP2 SWAP1 SWAP2 MSTORE POP PUSH2 0x186 SWAP3 POP POP POP JUMP JUMPDEST POP GAS PUSH2 0x16C SWAP1 DUP3 PUSH2 0x37D JUMP JUMPDEST SWAP2 POP POP JUMPDEST SWAP3 SWAP2 POP POP JUMP JUMPDEST PUSH1 0x0 DUP1 GAS SWAP1 POP PUSH2 0x160 DUP5 DUP5 PUSH2 0xAF JUMP JUMPDEST PUSH1 0x0 DUP1 JUMPDEST DUP3 MLOAD DUP2 LT ISZERO PUSH2 0x1EF JUMPI PUSH1 0x0 SLOAD DUP4 DUP3 DUP2 MLOAD DUP2 LT PUSH2 0x1A8 JUMPI PUSH2 0x1A8 PUSH2 0x33E JUMP JUMPDEST PUSH1 0x20 MUL PUSH1 0x20 ADD ADD MLOAD EQ PUSH2 0x1DD JUMPI DUP3 DUP2 DUP2 MLOAD DUP2 LT PUSH2 0x1C7 JUMPI PUSH2 0x1C7 PUSH2 0x33E JUMP JUMPDEST PUSH1 0x20 MUL PUSH1 0x20 ADD ADD MLOAD DUP3 PUSH2 0x1DA SWAP2 SWAP1 PUSH2 0x36A JUMP JUMPDEST SWAP2 POP JUMPDEST DUP1 PUSH2 0x1E7 DUP2 PUSH2 0x390 JUMP JUMPDEST SWAP2 POP POP PUSH2 0x18A JUMP JUMPDEST POP SWAP2 SWAP1 POP JUMP JUMPDEST PUSH1 0x0 DUP1 PUSH1 0x20 DUP4 DUP6 SUB SLT ISZERO PUSH2 0x208 JUMPI PUSH1 0x0 DUP1 REVERT JUMPDEST DUP3 CALLDATALOAD PUSH8 0xFFFFFFFFFFFFFFFF DUP1 DUP3 GT ISZERO PUSH2 0x220 JUMPI PUSH1 0x0 DUP1 REVERT JUMPDEST DUP2 DUP6 ADD SWAP2 POP DUP6 PUSH1 0x1F DUP4 ADD SLT PUSH2 0x234 JUMPI PUSH1 0x0 DUP1 REVERT JUMPDEST DUP2 CALLDATALOAD DUP2 DUP2 GT ISZERO PUSH2 0x243 JUMPI PUSH1 0x0 DUP1 REVERT JUMPDEST DUP7 PUSH1 0x20 DUP3 PUSH1 0x5 SHL DUP6 ADD ADD GT ISZERO PUSH2 0x258 JUMPI PUSH1 0x0 DUP1 REVERT JUMPDEST PUSH1 0x20 SWAP3 SWAP1 SWAP3 ADD SWAP7 SWAP2 SWAP6 POP SWAP1 SWAP4 POP POP POP POP JUMP JUMPDEST PUSH4 0x4E487B71 PUSH1 0xE0 SHL PUSH1 0x0 MSTORE PUSH1 0x41 PUSH1 0x4 MSTORE PUSH1 0x24 PUSH1 0x0 REVERT JUMPDEST PUSH1 0x0 PUSH1 0x20 DUP1 DUP4 DUP6 SUB SLT ISZERO PUSH2 0x293 JUMPI PUSH1 0x0 DUP1 REVERT JUMPDEST DUP3 CALLDATALOAD PUSH8 0xFFFFFFFFFFFFFFFF DUP1 DUP3 GT ISZERO PUSH2 0x2AB JUMPI PUSH1 0x0 DUP1 REVERT JUMPDEST DUP2 DUP6 ADD SWAP2 POP DUP6 PUSH1 0x1F DUP4 ADD SLT PUSH2 0x2BF JUMPI PUSH1 0x0 DUP1 REVERT JUMPDEST DUP2 CALLDATALOAD DUP2 DUP2 GT ISZERO PUSH2 0x2D1 JUMPI PUSH2 0x2D1 PUSH2 0x26A JUMP JUMPDEST DUP1 PUSH1 0x5 SHL PUSH1 0x40 MLOAD PUSH1 0x1F NOT PUSH1 0x3F DUP4 ADD AND DUP2 ADD DUP2 DUP2 LT DUP6 DUP3 GT OR ISZERO PUSH2 0x2F6 JUMPI PUSH2 0x2F6 PUSH2 0x26A JUMP JUMPDEST PUSH1 0x40 MSTORE SWAP2 DUP3 MSTORE DUP5 DUP3 ADD SWAP3 POP DUP4 DUP2 ADD DUP6 ADD SWAP2 DUP9 DUP4 GT ISZERO PUSH2 0x314 JUMPI PUSH1 0x0 DUP1 REVERT JUMPDEST SWAP4 DUP6 ADD SWAP4 JUMPDEST DUP3 DUP6 LT ISZERO PUSH2 0x332 JUMPI DUP5 CALLDATALOAD DUP5 MSTORE SWAP4 DUP6 ADD SWAP4 SWAP3 DUP6 ADD SWAP3 PUSH2 0x319 JUMP JUMPDEST SWAP9 SWAP8 POP POP POP POP POP POP POP POP JUMP JUMPDEST PUSH4 0x4E487B71 PUSH1 0xE0 SHL PUSH1 0x0 MSTORE PUSH1 0x32 PUSH1 0x4 MSTORE PUSH1 0x24 PUSH1 0x0 REVERT JUMPDEST PUSH4 0x4E487B71 PUSH1 0xE0 SHL PUSH1 0x0 MSTORE PUSH1 0x11 PUSH1 0x4 MSTORE PUSH1 0x24 PUSH1 0x0 REVERT JUMPDEST DUP1 DUP3 ADD DUP1 DUP3 GT ISZERO PUSH2 0x170 JUMPI PUSH2 0x170 PUSH2 0x354 JUMP JUMPDEST DUP2 DUP2 SUB DUP2 DUP2 GT ISZERO PUSH2 0x170 JUMPI PUSH2 0x170 PUSH2 0x354 JUMP JUMPDEST PUSH1 0x0 PUSH1 0x1 DUP3 ADD PUSH2 0x3A2 JUMPI PUSH2 0x3A2 PUSH2 0x354 JUMP JUMPDEST POP PUSH1 0x1 ADD SWAP1 JUMP INVALID LOG2 PUSH5 0x6970667358 0x22 SLT KECCAK256 CREATE DIV 0x1F DUP4 DELEGATECALL 0xC2 PUSH1 0x4D EXTCODESIZE BLOCKHASH 0xEB PUSH30 0x10AC9FD131FD6F77A09528044056B3B017D8BFC64736F6C634300081300 CALLER "},"methodIdentifiers":{"measureGas(uint256[])":"9b403b6f","measureReferenceGas(uint256[])":"2b55c4b1","referenceSumAllExceptSkip(uint256[])":"fe28cfd7","sumAllExceptSkip(uint256[])":"14e8663e"}}}}}