{"abi":[{"type":"constructor","inputs":[{"name":"skip","type":"uint256","internalType":"uint256"}],"stateMutability":"nonpayable"},{"type":"function","name":"sumAllExceptSkip","inputs":[{"name":"array","type":"uint256[]","internalType":"uint256[]"}],"outputs":[{"name":"sum","type":"uint256","internalType":"uint256"}],"stateMutability":"view"}],"bytecode":{"object":"0x60a060405234801561001057600080fd5b5060405161021638038061021683398101604081905261002f91610037565b608052610050565b60006020828403121561004957600080fd5b5051919050565b6080516101ac61006a6000396000608101526101ac6000f3fe608060405234801561001057600080fd5b506004361061002b5760003560e01c806314e8663e14610030575b600080fd5b61004361003e3660046100c4565b610055565b60405190815260200160405180910390f35b600081815b818110156100bc57600085858381811061007657610076610139565b9050602002013590507f000000000000000000000000000000000000000000000000000000000000000081146100b3576100b0818561014f565b93505b5060010161005a565b505092915050565b600080602083850312156100d757600080fd5b823567ffffffffffffffff808211156100ef57600080fd5b818501915085601f83011261010357600080fd5b81358181111561011257600080fd5b8660208260051b850101111561012757600080fd5b60209290920196919550909350505050565b634e487b7160e01b600052603260045260246000fd5b8082018082111561017057634e487b7160e01b600052601160045260246000fd5b9291505056fea26469706673582212209ee7e5c59056f8edb6c7986a9cf62d82e81eabd9a547c030ef4558dc32e12e6a64736f6c63430008130033","linkReferences":{}},"methodIdentifiers":{"sumAllExceptSkip(uint256[])":"14e8663e"},"id":23}