{"abi":[{"type":"function","name":"measureCopyArray","inputs":[],"outputs":[{"name":"","type":"uint256","internalType":"uint256"}],"stateMutability":"view"},{"type":"function","name":"measureReferenceCopyArray","inputs":[{"name":"array","type":"bytes","internalType":"bytes"}],"outputs":[{"name":"","type":"uint256","internalType":"uint256"}],"stateMutability":"view"},{"type":"function","name":"setArray","inputs":[{"name":"array","type":"bytes","internalType":"bytes"}],"outputs":[],"stateMutability":"nonpayable"},{"type":"function","name":"testCopyArray","inputs":[],"outputs":[],"stateMutability":"view"}],"bytecode":{"object":"0x608060405234801561001057600080fd5b50610758806100206000396000f3fe608060405234801561001057600080fd5b506004361061004c5760003560e01c8063169bfb241461005157806341c1580414610076578063a87b332214610080578063b2ef9f6414610093575b600080fd5b61006461005f366004610494565b61009b565b60405190815260200160405180910390f35b61007e6100c2565b005b61007e61008e366004610494565b61024c565b61006461025c565b6000805a90506100aa83610312565b5060005a90506100ba818361055b565b949350505050565b60008080546100d09061056e565b80601f01602080910402602001604051908101604052809291908181526020018280546100fc9061056e565b80156101495780601f1061011e57610100808354040283529160200191610149565b820191906000526020600020905b81548152906001019060200180831161012c57829003601f168201915b505050505090506060600061015d60405190565b905060008061016b856103dd565b935061017660405190565b91505082821480158061019d575084516101919060206105a2565b61019b848461055b565b105b156101ef5760405162461bcd60e51b815260206004820152601f60248201527f436f707920776173206e6f742070726f7065726c7920616c6c6f63617465640060448201526064015b60405180910390fd5b6101f98585610419565b6102455760405162461bcd60e51b815260206004820181905260248201527f436f707920646f65736e2774206d6174636820696e697469616c20617272617960448201526064016101e6565b5050505050565b60006102588282610604565b5050565b6000806000805461026c9061056e565b80601f01602080910402602001604051908101604052809291908181526020018280546102989061056e565b80156102e55780601f106102ba576101008083540402835291602001916102e5565b820191906000526020600020905b8154815290600101906020018083116102c857829003601f168201915b5050505050905060005a90506102fa826103dd565b5060005a905061030a818361055b565b935050505090565b6060815167ffffffffffffffff81111561032e5761032e61047e565b6040519080825280601f01601f191660200182016040528015610358576020820181803683370190505b50905060005b82518110156103d757828181518110610379576103796106c4565b602001015160f81c60f81b828281518110610396576103966106c4565b60200101907effffffffffffffffffffffffffffffffffffffffffffffffffffffffffffff1916908160001a905350806103cf816106da565b91505061035e565b50919050565b805160405181815290602080840190830160005b838110156104095782810151828201526020016103f1565b5050508101602001604052919050565b6000808360405160200161042d91906106f3565b60405160208183030381529060405280519060200120905060008360405160200161045891906106f3565b604051602081830303815290604052805190602001209050808214925050505b92915050565b634e487b7160e01b600052604160045260246000fd5b6000602082840312156104a657600080fd5b813567ffffffffffffffff808211156104be57600080fd5b818401915084601f8301126104d257600080fd5b8135818111156104e4576104e461047e565b604051601f8201601f19908116603f0116810190838211818310171561050c5761050c61047e565b8160405282815287602084870101111561052557600080fd5b826020860160208301376000928101602001929092525095945050505050565b634e487b7160e01b600052601160045260246000fd5b8181038181111561047857610478610545565b600181811c9082168061058257607f821691505b6020821081036103d757634e487b7160e01b600052602260045260246000fd5b8082018082111561047857610478610545565b601f8211156105ff57600081815260208120601f850160051c810160208610156105dc5750805b601f850160051c820191505b818110156105fb578281556001016105e8565b5050505b505050565b815167ffffffffffffffff81111561061e5761061e61047e565b6106328161062c845461056e565b846105b5565b602080601f831160018114610667576000841561064f5750858301515b600019600386901b1c1916600185901b1785556105fb565b600085815260208120601f198616915b8281101561069657888601518255948401946001909101908401610677565b50858210156106b45787850151600019600388901b60f8161c191681555b5050505050600190811b01905550565b634e487b7160e01b600052603260045260246000fd5b6000600182016106ec576106ec610545565b5060010190565b6000825160005b8181101561071457602081860181015185830152016106fa565b50600092019182525091905056fea26469706673582212208fd0541a73c2de2387e8a1fcf5398befea0b2a0b016e6b44059963accdb92c4664736f6c63430008130033","linkReferences":{}},"methodIdentifiers":{"measureCopyArray()":"b2ef9f64","measureReferenceCopyArray(bytes)":"169bfb24","setArray(bytes)":"a87b3322","testCopyArray()":"41c15804"},"id":25}