{
  "_format": "hh-sol-artifact-1",
  "contractName": "GasMeter",
  "sourceName": "contracts/test/GasMeter.sol",
  "abi": [
    {
      "inputs": [
        {
          "internalType": "uint256",
          "name": "_skip",
          "type": "uint256"
        }
      ],
      "stateMutability": "nonpayable",
      "type": "constructor"
    },
    {
      "inputs": [
        {
          "internalType": "uint256[]",
          "name": "_inputArray",
          "type": "uint256[]"
        }
      ],
      "name": "measureGas",
      "outputs": [
        {
          "internalType": "uint256",
          "name": "gas",
          "type": "uint256"
        }
      ],
      "stateMutability": "view",
      "type": "function"
    },
    {
      "inputs": [
        {
          "internalType": "uint256[]",
          "name": "_inputArray",
          "type": "uint256[]"
        }
      ],
      "name": "measureReferenceGas",
      "outputs": [
        {
          "internalType": "uint256",
          "name": "gas",
          "type": "uint256"
        }
      ],
      "stateMutability": "view",
      "type": "function"
    },
    {
      "inputs": [
        {
          "internalType": "uint256[]",
          "name": "array",
          "type": "uint256[]"
        }
      ],
      "name": "referenceSumAllExceptSkip",
      "outputs": [
        {
          "internalType": "uint256",
          "name": "sum",
          "type": "uint256"
        }
      ],
      "stateMutability": "view",
      "type": "function"
    },
    {
      "inputs": [
        {
          "internalType": "uint256[]",
          "name": "array",
          "type": "uint256[]"
        }
      ],
      "name": "sumAllExceptSkip",
      "outputs": [
        {
          "internalType": "uint256",
          "name": "sum",
          "type": "uint256"
        }
      ],
      "stateMutability": "view",
      "type": "function"
    }
  ],
  "bytecode": "0x60a060405234801561001057600080fd5b5060405161044e38038061044e83398101604081905261002f9161003c565b6080819052600055610055565b60006020828403121561004e57600080fd5b5051919050565b6080516103df61006f600039600060db01526103df6000f3fe608060405234801561001057600080fd5b506004361061004c5760003560e01c806314e8663e146100515780632b55c4b1146100765780639b403b6f14610089578063fe28cfd71461009c575b600080fd5b61006461005f3660046101f5565b6100af565b60405190815260200160405180910390f35b6100646100843660046101f5565b61011e565b6100646100973660046101f5565b610176565b6100646100aa366004610280565b610186565b600081815b818110156101165760008585838181106100d0576100d061033e565b9050602002013590507f0000000000000000000000000000000000000000000000000000000000000000811461010d5761010a818561036a565b93505b506001016100b4565b505092915050565b6000805a905061016084848080602002602001604051908101604052809392919081815260200183836020028082843760009201919091525061018692505050565b505a61016c908261037d565b9150505b92915050565b6000805a905061016084846100af565b6000805b82518110156101ef576000548382815181106101a8576101a861033e565b6020026020010151146101dd578281815181106101c7576101c761033e565b6020026020010151826101da919061036a565b91505b806101e781610390565b91505061018a565b50919050565b6000806020838503121561020857600080fd5b823567ffffffffffffffff8082111561022057600080fd5b818501915085601f83011261023457600080fd5b81358181111561024357600080fd5b8660208260051b850101111561025857600080fd5b60209290920196919550909350505050565b634e487b7160e01b600052604160045260246000fd5b6000602080838503121561029357600080fd5b823567ffffffffffffffff808211156102ab57600080fd5b818501915085601f8301126102bf57600080fd5b8135818111156102d1576102d161026a565b8060051b604051601f19603f830116810181811085821117156102f6576102f661026a565b60405291825284820192508381018501918883111561031457600080fd5b938501935b8285101561033257843584529385019392850192610319565b98975050505050505050565b634e487b7160e01b600052603260045260246000fd5b634e487b7160e01b600052601160045260246000fd5b8082018082111561017057610170610354565b8181038181111561017057610170610354565b6000600182016103a2576103a2610354565b506001019056fea2646970667358221220f0041f83f4c2604d3b40eb7d010ac9fd131fd6f77a09528044056b3b017d8bfc64736f6c63430008130033",
  "linkReferences": {},
  "deployedLinkReferences": {}
}